:100000000C9434000C940E010C940E010C940E010F
:100010000C940E010C940E010C9400010C940E0132
:100020000C940E010C940E010C940E010C940E0114
:100030000C940E010C940E010C940E010C940E0104
:100040000C940E010C940E010C94D1000C940E0132
:100050000C940E010C940E010C940E010C940E01E4
:100060000C940E010C940E011124A0E0B3E0ADBF7E
:10007000BEBF0F92A0E0B3E0C0E0D3E0EEE2F2E05A
:10008000AC17BD0719F005900D92FACFA0E0B3E0D0
:1000900082E993E020E0A817B90711F02D93FBCF78
:1000A0000E9452001F9381E0809303038093040316
:1000B00082E993E040E059E0481B590B569547957B
:1000C0005695479556954795569547955695479514
:1000D00010E060E00E9410011093C50087E6809355
:1000E000C40088E98093C10086E08093C2007894C0
:1000F0000E94C900CF92DF92EF92FF920F931F935D
:100100008091060390910703209108033091090321
:10011000855C9F4F2F4F3F4F9093070380930603BB
:10012000309309032093080300E010E04BE350E014
:10013000780181E09701421753070207130709F07E
:1001400080E08170803051F480E06A010E94B50047
:10015000A6014150504000401040EBCF1F910F913D
:10016000FF90EF90DF90CF900895F894A89590912C
:10017000600098619093600090916000982B90646B
:1001800090936000789481E083BF889580E083BF7E
:100190000895259A2D980E947A002D9A0E947A003F
:1001A000F9CF0F921F920FB60F9200242F938F93C7
:1001B0009F93AF93BF938091C6009091C0009C71B4
:1001C0009030A1F49091900320919103921B90386C
:1001D00069F0909190039395909390039091900380
:1001E0009F77A92FBB27A05FBC4F8C93BF91AF9186
:1001F0009F918F912F910F900FBE1F900F90189588
:100200000F930027A89504BF009160000861009338
:1002100060000027009360000F9118958895FECF2D
:0E022000DC0101C06D9341505040E0F708959D
:00000001FF
